{
  "contractName": "Dex",
  "abi": [
    {
      "inputs": [
        {
          "internalType": "bytes32",
          "name": "ticker",
          "type": "bytes32"
        },
        {
          "internalType": "address",
          "name": "tokenAddress",
          "type": "address"
        }
      ],
      "name": "addToken",
      "outputs": [],
      "stateMutability": "nonpayable",
      "type": "function"
    },
    {
      "inputs": [
        {
          "internalType": "address",
          "name": "",
          "type": "address"
        },
        {
          "internalType": "bytes32",
          "name": "",
          "type": "bytes32"
        }
      ],
      "name": "balances",
      "outputs": [
        {
          "internalType": "uint256",
          "name": "",
          "type": "uint256"
        }
      ],
      "stateMutability": "view",
      "type": "function"
    },
    {
      "inputs": [
        {
          "internalType": "uint256",
          "name": "amount",
          "type": "uint256"
        },
        {
          "internalType": "bytes32",
          "name": "ticker",
          "type": "bytes32"
        }
      ],
      "name": "deposit",
      "outputs": [],
      "stateMutability": "nonpayable",
      "type": "function"
    },
    {
      "inputs": [
        {
          "internalType": "bytes32",
          "name": "",
          "type": "bytes32"
        },
        {
          "internalType": "uint256",
          "name": "",
          "type": "uint256"
        },
        {
          "internalType": "uint256",
          "name": "",
          "type": "uint256"
        }
      ],
      "name": "orderBook",
      "outputs": [
        {
          "internalType": "uint256",
          "name": "id",
          "type": "uint256"
        },
        {
          "internalType": "address",
          "name": "trader",
          "type": "address"
        },
        {
          "internalType": "enum Dex.Side",
          "name": "side",
          "type": "uint8"
        },
        {
          "internalType": "bytes32",
          "name": "ticker",
          "type": "bytes32"
        },
        {
          "internalType": "uint256",
          "name": "amount",
          "type": "uint256"
        },
        {
          "internalType": "uint256",
          "name": "price",
          "type": "uint256"
        }
      ],
      "stateMutability": "view",
      "type": "function"
    },
    {
      "inputs": [
        {
          "internalType": "uint256",
          "name": "",
          "type": "uint256"
        }
      ],
      "name": "tokenList",
      "outputs": [
        {
          "internalType": "bytes32",
          "name": "",
          "type": "bytes32"
        }
      ],
      "stateMutability": "view",
      "type": "function"
    },
    {
      "inputs": [
        {
          "internalType": "bytes32",
          "name": "",
          "type": "bytes32"
        }
      ],
      "name": "tokenMapping",
      "outputs": [
        {
          "internalType": "bytes32",
          "name": "ticker",
          "type": "bytes32"
        },
        {
          "internalType": "address",
          "name": "tokenAddress",
          "type": "address"
        }
      ],
      "stateMutability": "view",
      "type": "function"
    },
    {
      "inputs": [
        {
          "internalType": "uint256",
          "name": "amount",
          "type": "uint256"
        },
        {
          "internalType": "bytes32",
          "name": "ticker",
          "type": "bytes32"
        }
      ],
      "name": "withdraw",
      "outputs": [],
      "stateMutability": "nonpayable",
      "type": "function"
    }
  ],
  "bytecode": "0x608060405234801561001057600080fd5b50610e56806100206000396000f3fe608060405234801561001057600080fd5b506004361061007d5760003560e01c80639776aacf1161005b5780639776aacf146101185780639ead722214610134578063a8d2021a14610164578063c9630cb0146101805761007d565b80630bb431b6146100825780631f14df69146100b7578063667cb4ba146100e7575b600080fd5b61009c60048036038101906100979190610970565b61019c565b6040516100ae96959493929190610bdf565b60405180910390f35b6100d160048036038101906100cc91906108a6565b61022f565b6040516100de9190610bc4565b60405180910390f35b61010160048036038101906100fc919061090b565b610254565b60405161010f929190610b5b565b60405180910390f35b610132600480360381019061012d9190610934565b610298565b005b61014e600480360381019061014991906109bf565b610357565b60405161015b9190610b40565b60405180910390f35b61017e600480360381019061017991906109e8565b61037b565b005b61019a600480360381019061019591906109e8565b6105fd565b005b600360205282600052604060002060205281600052604060002081815481106101c457600080fd5b906000526020600020906005020160009250925050508060000154908060010160009054906101000a900473ffffffffffffffffffffffffffffffffffffffff16908060010160149054906101000a900460ff16908060020154908060030154908060040154905086565b6002602052816000526040600020602052806000526040600020600091509150505481565b60016020528060005260406000206000915090508060000154908060010160009054906101000a900473ffffffffffffffffffffffffffffffffffffffff16905082565b60405180604001604052808381526020018273ffffffffffffffffffffffffffffffffffffffff16815250600160008481526020019081526020016000206000820151816000015560208201518160010160006101000a81548173ffffffffffffffffffffffffffffffffffffffff021916908373ffffffffffffffffffffffffffffffffffffffff16021790555090505060008290806001815401808255809150506001900390600052602060002001600090919091909150555050565b6000818154811061036757600080fd5b906000526020600020016000915090505481565b600073ffffffffffffffffffffffffffffffffffffffff166001600083815260200190815260200160002060010160009054906101000a900473ffffffffffffffffffffffffffffffffffffffff1673ffffffffffffffffffffffffffffffffffffffff1614156103eb57600080fd5b81600260003373ffffffffffffffffffffffffffffffffffffffff1673ffffffffffffffffffffffffffffffffffffffff168152602001908152602001600020600083815260200190815260200160002054101561047e576040517f08c379a000000000000000000000000000000000000000000000000000000000815260040161047590610b84565b60405180910390fd5b6001600082815260200190815260200160002060010160009054906101000a900473ffffffffffffffffffffffffffffffffffffffff1673ffffffffffffffffffffffffffffffffffffffff1663a9059cbb33846040518363ffffffff1660e01b81526004016104ef929190610b17565b602060405180830381600087803b15801561050957600080fd5b505af115801561051d573d6000803e3d6000fd5b505050506040513d601f19601f8201168201806040525081019061054191906108e2565b506105a582600260003373ffffffffffffffffffffffffffffffffffffffff1673ffffffffffffffffffffffffffffffffffffffff16815260200190815260200160002060008481526020019081526020016000205461082690919063ffffffff16565b600260003373ffffffffffffffffffffffffffffffffffffffff1673ffffffffffffffffffffffffffffffffffffffff1681526020019081526020016000206000838152602001908152602001600020819055505050565b80600073ffffffffffffffffffffffffffffffffffffffff166001600083815260200190815260200160002060010160009054906101000a900473ffffffffffffffffffffffffffffffffffffffff1673ffffffffffffffffffffffffffffffffffffffff1614156106a4576040517f08c379a000000000000000000000000000000000000000000000000000000000815260040161069b90610ba4565b60405180910390fd5b6001600083815260200190815260200160002060010160009054906101000a900473ffffffffffffffffffffffffffffffffffffffff1673ffffffffffffffffffffffffffffffffffffffff166323b872dd3330866040518463ffffffff1660e01b815260040161071793929190610ae0565b602060405180830381600087803b15801561073157600080fd5b505af1158015610745573d6000803e3d6000fd5b505050506040513d601f19601f8201168201806040525081019061076991906108e2565b506107cd83600260003373ffffffffffffffffffffffffffffffffffffffff1673ffffffffffffffffffffffffffffffffffffffff16815260200190815260200160002060008581526020019081526020016000205461083c90919063ffffffff16565b600260003373ffffffffffffffffffffffffffffffffffffffff1673ffffffffffffffffffffffffffffffffffffffff168152602001908152602001600020600084815260200190815260200160002081905550505050565b600081836108349190610ca7565b905092915050565b6000818361084a9190610c51565b905092915050565b60008135905061086181610dc4565b92915050565b60008151905061087681610ddb565b92915050565b60008135905061088b81610df2565b92915050565b6000813590506108a081610e09565b92915050565b600080604083850312156108b957600080fd5b60006108c785828601610852565b92505060206108d88582860161087c565b9150509250929050565b6000602082840312156108f457600080fd5b600061090284828501610867565b91505092915050565b60006020828403121561091d57600080fd5b600061092b8482850161087c565b91505092915050565b6000806040838503121561094757600080fd5b60006109558582860161087c565b925050602061096685828601610852565b9150509250929050565b60008060006060848603121561098557600080fd5b60006109938682870161087c565b93505060206109a486828701610891565b92505060406109b586828701610891565b9150509250925092565b6000602082840312156109d157600080fd5b60006109df84828501610891565b91505092915050565b600080604083850312156109fb57600080fd5b6000610a0985828601610891565b9250506020610a1a8582860161087c565b9150509250929050565b610a2d81610cdb565b82525050565b610a3c81610cf9565b82525050565b610a4b81610d40565b82525050565b6000610a5e601683610c40565b91507f42616c616e6365206e6f742073756666696369656e74000000000000000000006000830152602082019050919050565b6000610a9e601483610c40565b91507f746f6b656e20646f6573206e6f742065786973740000000000000000000000006000830152602082019050919050565b610ada81610d36565b82525050565b6000606082019050610af56000830186610a24565b610b026020830185610a24565b610b0f6040830184610ad1565b949350505050565b6000604082019050610b2c6000830185610a24565b610b396020830184610ad1565b9392505050565b6000602082019050610b556000830184610a33565b92915050565b6000604082019050610b706000830185610a33565b610b7d6020830184610a24565b9392505050565b60006020820190508181036000830152610b9d81610a51565b9050919050565b60006020820190508181036000830152610bbd81610a91565b9050919050565b6000602082019050610bd96000830184610ad1565b92915050565b600060c082019050610bf46000830189610ad1565b610c016020830188610a24565b610c0e6040830187610a42565b610c1b6060830186610a33565b610c286080830185610ad1565b610c3560a0830184610ad1565b979650505050505050565b600082825260208201905092915050565b6000610c5c82610d36565b9150610c6783610d36565b9250827fffffffffffffffffffffffffffffffffffffffffffffffffffffffffffffffff03821115610c9c57610c9b610d52565b5b828201905092915050565b6000610cb282610d36565b9150610cbd83610d36565b925082821015610cd057610ccf610d52565b5b828203905092915050565b6000610ce682610d16565b9050919050565b60008115159050919050565b6000819050919050565b6000819050610d1182610db0565b919050565b600073ffffffffffffffffffffffffffffffffffffffff82169050919050565b6000819050919050565b6000610d4b82610d03565b9050919050565b7f4e487b7100000000000000000000000000000000000000000000000000000000600052601160045260246000fd5b7f4e487b7100000000000000000000000000000000000000000000000000000000600052602160045260246000fd5b60028110610dc157610dc0610d81565b5b50565b610dcd81610cdb565b8114610dd857600080fd5b50565b610de481610ced565b8114610def57600080fd5b50565b610dfb81610cf9565b8114610e0657600080fd5b50565b610e1281610d36565b8114610e1d57600080fd5b5056fea26469706673582212209a42fca4a9dd3e945fda98c58bba758b05cf09d3bead836d885e3cfed745604d64736f6c63430008000033",
  "immutableReferences": {},
  "source": "pragma solidity ^0.8.0;\nimport \"./wallet.sol\";\ncontract Dex is Wallet {\n\n    enum Side {\n        BUY,\n        SELL\n    }\n    \n    struct Order {\n        uint id;\n        address trader;\n        Side side;\n        bytes32 ticker;\n        uint amount;\n        uint price;\n    }\n\n    mapping(bytes32 => mapping(uint => Order[])) public orderBook;\n\n}",
  "sourcePath": "/home/javad/Documents/DEX/contracts/Dex.sol",
  "compiler": {
    "name": "solc",
    "version": "0.8.0+commit.c7dfd78e.Emscripten.clang"
  },
  "schemaVersion": "3.4.13",
  "updatedAt": "2023-05-05T05:12:22.501Z",
  "devdoc": {
    "kind": "dev",
    "methods": {},
    "version": 1
  },
  "userdoc": {
    "kind": "user",
    "methods": {},
    "version": 1
  }
}