{
  "contractName": "Wallet",
  "abi": [
    {
      "inputs": [
        {
          "internalType": "address",
          "name": "",
          "type": "address"
        },
        {
          "internalType": "bytes32",
          "name": "",
          "type": "bytes32"
        }
      ],
      "name": "balances",
      "outputs": [
        {
          "internalType": "uint256",
          "name": "",
          "type": "uint256"
        }
      ],
      "stateMutability": "view",
      "type": "function"
    },
    {
      "inputs": [
        {
          "internalType": "uint256",
          "name": "",
          "type": "uint256"
        }
      ],
      "name": "tokenList",
      "outputs": [
        {
          "internalType": "bytes32",
          "name": "",
          "type": "bytes32"
        }
      ],
      "stateMutability": "view",
      "type": "function"
    },
    {
      "inputs": [
        {
          "internalType": "bytes32",
          "name": "",
          "type": "bytes32"
        }
      ],
      "name": "tokenMapping",
      "outputs": [
        {
          "internalType": "bytes32",
          "name": "ticker",
          "type": "bytes32"
        },
        {
          "internalType": "address",
          "name": "tokenAddress",
          "type": "address"
        }
      ],
      "stateMutability": "view",
      "type": "function"
    },
    {
      "inputs": [
        {
          "internalType": "bytes32",
          "name": "ticker",
          "type": "bytes32"
        },
        {
          "internalType": "address",
          "name": "tokenAddress",
          "type": "address"
        }
      ],
      "name": "addToken",
      "outputs": [],
      "stateMutability": "nonpayable",
      "type": "function"
    },
    {
      "inputs": [
        {
          "internalType": "uint256",
          "name": "amount",
          "type": "uint256"
        },
        {
          "internalType": "bytes32",
          "name": "ticker",
          "type": "bytes32"
        }
      ],
      "name": "deposit",
      "outputs": [],
      "stateMutability": "nonpayable",
      "type": "function"
    },
    {
      "inputs": [
        {
          "internalType": "uint256",
          "name": "amount",
          "type": "uint256"
        },
        {
          "internalType": "bytes32",
          "name": "ticker",
          "type": "bytes32"
        }
      ],
      "name": "withdraw",
      "outputs": [],
      "stateMutability": "nonpayable",
      "type": "function"
    }
  ],
  "bytecode": "0x608060405234801561001057600080fd5b50610c4c806100206000396000f3fe608060405234801561001057600080fd5b50600436106100625760003560e01c80631f14df6914610067578063667cb4ba146100975780639776aacf146100c85780639ead7222146100e4578063a8d2021a14610114578063c9630cb014610130575b600080fd5b610081600480360381019061007c91906107c3565b61014c565b60405161008e9190610a83565b60405180910390f35b6100b160048036038101906100ac9190610828565b610171565b6040516100bf929190610a1a565b60405180910390f35b6100e260048036038101906100dd9190610851565b6101b5565b005b6100fe60048036038101906100f9919061088d565b610274565b60405161010b91906109ff565b60405180910390f35b61012e600480360381019061012991906108b6565b610298565b005b61014a600480360381019061014591906108b6565b61051a565b005b6002602052816000526040600020602052806000526040600020600091509150505481565b60016020528060005260406000206000915090508060000154908060010160009054906101000a900473ffffffffffffffffffffffffffffffffffffffff16905082565b60405180604001604052808381526020018273ffffffffffffffffffffffffffffffffffffffff16815250600160008481526020019081526020016000206000820151816000015560208201518160010160006101000a81548173ffffffffffffffffffffffffffffffffffffffff021916908373ffffffffffffffffffffffffffffffffffffffff16021790555090505060008290806001815401808255809150506001900390600052602060002001600090919091909150555050565b6000818154811061028457600080fd5b906000526020600020016000915090505481565b600073ffffffffffffffffffffffffffffffffffffffff166001600083815260200190815260200160002060010160009054906101000a900473ffffffffffffffffffffffffffffffffffffffff1673ffffffffffffffffffffffffffffffffffffffff16141561030857600080fd5b81600260003373ffffffffffffffffffffffffffffffffffffffff1673ffffffffffffffffffffffffffffffffffffffff168152602001908152602001600020600083815260200190815260200160002054101561039b576040517f08c379a000000000000000000000000000000000000000000000000000000000815260040161039290610a43565b60405180910390fd5b6001600082815260200190815260200160002060010160009054906101000a900473ffffffffffffffffffffffffffffffffffffffff1673ffffffffffffffffffffffffffffffffffffffff1663a9059cbb33846040518363ffffffff1660e01b815260040161040c9291906109d6565b602060405180830381600087803b15801561042657600080fd5b505af115801561043a573d6000803e3d6000fd5b505050506040513d601f19601f8201168201806040525081019061045e91906107ff565b506104c282600260003373ffffffffffffffffffffffffffffffffffffffff1673ffffffffffffffffffffffffffffffffffffffff16815260200190815260200160002060008481526020019081526020016000205461074390919063ffffffff16565b600260003373ffffffffffffffffffffffffffffffffffffffff1673ffffffffffffffffffffffffffffffffffffffff1681526020019081526020016000206000838152602001908152602001600020819055505050565b80600073ffffffffffffffffffffffffffffffffffffffff166001600083815260200190815260200160002060010160009054906101000a900473ffffffffffffffffffffffffffffffffffffffff1673ffffffffffffffffffffffffffffffffffffffff1614156105c1576040517f08c379a00000000000000000000000000000000000000000000000000000000081526004016105b890610a63565b60405180910390fd5b6001600083815260200190815260200160002060010160009054906101000a900473ffffffffffffffffffffffffffffffffffffffff1673ffffffffffffffffffffffffffffffffffffffff166323b872dd3330866040518463ffffffff1660e01b81526004016106349392919061099f565b602060405180830381600087803b15801561064e57600080fd5b505af1158015610662573d6000803e3d6000fd5b505050506040513d601f19601f8201168201806040525081019061068691906107ff565b506106ea83600260003373ffffffffffffffffffffffffffffffffffffffff1673ffffffffffffffffffffffffffffffffffffffff16815260200190815260200160002060008581526020019081526020016000205461075990919063ffffffff16565b600260003373ffffffffffffffffffffffffffffffffffffffff1673ffffffffffffffffffffffffffffffffffffffff168152602001908152602001600020600084815260200190815260200160002081905550505050565b600081836107519190610b05565b905092915050565b600081836107679190610aaf565b905092915050565b60008135905061077e81610bba565b92915050565b60008151905061079381610bd1565b92915050565b6000813590506107a881610be8565b92915050565b6000813590506107bd81610bff565b92915050565b600080604083850312156107d657600080fd5b60006107e48582860161076f565b92505060206107f585828601610799565b9150509250929050565b60006020828403121561081157600080fd5b600061081f84828501610784565b91505092915050565b60006020828403121561083a57600080fd5b600061084884828501610799565b91505092915050565b6000806040838503121561086457600080fd5b600061087285828601610799565b92505060206108838582860161076f565b9150509250929050565b60006020828403121561089f57600080fd5b60006108ad848285016107ae565b91505092915050565b600080604083850312156108c957600080fd5b60006108d7858286016107ae565b92505060206108e885828601610799565b9150509250929050565b6108fb81610b39565b82525050565b61090a81610b57565b82525050565b600061091d601683610a9e565b91507f42616c616e6365206e6f742073756666696369656e74000000000000000000006000830152602082019050919050565b600061095d601483610a9e565b91507f746f6b656e20646f6573206e6f742065786973740000000000000000000000006000830152602082019050919050565b61099981610b81565b82525050565b60006060820190506109b460008301866108f2565b6109c160208301856108f2565b6109ce6040830184610990565b949350505050565b60006040820190506109eb60008301856108f2565b6109f86020830184610990565b9392505050565b6000602082019050610a146000830184610901565b92915050565b6000604082019050610a2f6000830185610901565b610a3c60208301846108f2565b9392505050565b60006020820190508181036000830152610a5c81610910565b9050919050565b60006020820190508181036000830152610a7c81610950565b9050919050565b6000602082019050610a986000830184610990565b92915050565b600082825260208201905092915050565b6000610aba82610b81565b9150610ac583610b81565b9250827fffffffffffffffffffffffffffffffffffffffffffffffffffffffffffffffff03821115610afa57610af9610b8b565b5b828201905092915050565b6000610b1082610b81565b9150610b1b83610b81565b925082821015610b2e57610b2d610b8b565b5b828203905092915050565b6000610b4482610b61565b9050919050565b60008115159050919050565b6000819050919050565b600073ffffffffffffffffffffffffffffffffffffffff82169050919050565b6000819050919050565b7f4e487b7100000000000000000000000000000000000000000000000000000000600052601160045260246000fd5b610bc381610b39565b8114610bce57600080fd5b50565b610bda81610b4b565b8114610be557600080fd5b50565b610bf181610b57565b8114610bfc57600080fd5b50565b610c0881610b81565b8114610c1357600080fd5b5056fea26469706673582212207d6f1cb0fd5574d571562333bca31181cf9e1596cbede87900b1db3e96b4be9d64736f6c63430008000033",
  "immutableReferences": {},
  "source": "pragma solidity ^0.8.0;\n\nimport \"../node_modules/@openzeppelin/contracts/token/ERC20/IERC20.sol\";\nimport \"../node_modules/@openzeppelin/contracts/utils/math/SafeMath.sol\";\nimport \"../node_modules/@openzeppelin/contracts/access/Ownable.sol\";\n\ncontract Wallet {\n\n    using SafeMath for uint256;\n    struct Token {\n        bytes32 ticker;\n        address tokenAddress;\n\n    }\n\n    bytes32[] public tokenList;\n    mapping(bytes32 => Token) public tokenMapping;\n    mapping (address => mapping( bytes32 => uint256)) public balances;\n\n    modifier tokenExist(bytes32 ticker) {\n        require(tokenMapping[ticker].tokenAddress != address(0), \"token does not exist\");\n        _;\n    }\n\n    function addToken(bytes32 ticker, address tokenAddress) external {\n        tokenMapping[ticker] = Token(ticker, tokenAddress);\n        tokenList.push(ticker);\n    }\n\n    function deposit(uint amount, bytes32 ticker) tokenExist(ticker) external {\n        IERC20(tokenMapping[ticker].tokenAddress).transferFrom(msg.sender,address(this), amount);\n        balances[msg.sender][ticker] = balances[msg.sender][ticker].add(amount);\n    }\n\n    function withdraw(uint amount, bytes32 ticker) external {\n        require(tokenMapping[ticker].tokenAddress != address(0)) ;\n        require(balances[msg.sender][ticker] >= amount, \"Balance not sufficient\");\n        IERC20(tokenMapping[ticker].tokenAddress).transfer(msg.sender,amount);\n        balances[msg.sender][ticker] = balances[msg.sender][ticker].sub(amount);\n    }\n\n\n}",
  "sourcePath": "/home/javad/Documents/DEX/contracts/wallet.sol",
  "compiler": {
    "name": "solc",
    "version": "0.8.0+commit.c7dfd78e.Emscripten.clang"
  },
  "schemaVersion": "3.4.13",
  "updatedAt": "2023-05-05T05:12:22.506Z",
  "devdoc": {
    "kind": "dev",
    "methods": {},
    "version": 1
  },
  "userdoc": {
    "kind": "user",
    "methods": {},
    "version": 1
  }
}